S01B000041726475696E6F5F74656D706C6174655F76312E7372656376
S113200000800020592100004121000041210000EE
S113201000000000000000000000000000000000BC
S1132020000000000000000000000000412100004A
S1132030000000000000000041210000AD2100006C
S11320404121000041210000412100004121000004
S113205041210000412100004121000045210000F0
S113206041210000412100004121000041210000E4
S113207041210000313900002139000041210000D4
S113208041210000412100004121000041210000C4
S11320900000000041210000412100004121000016
S11320A041210000412100004121000041210000A4
S11320B00000000010B5064C2378002B07D1054B17
S11320C0002B02D0044800E000BF0123237010BDA0
S11320D0A000002000000000484F0000084B10B58D
S11320E0002B03D00749084800E000BF07480368F5
S11320F0002B00D110BD064B002BFBD09847F9E70D
S113210000000000A4000020484F000098000020B8
S11321100000000010B50121072001F0AFFA10BD46
S113212010B50121072001F0F5FA044800F07CF80D
S11321300021072001F0EEFA10BDC046B80B0000E4
S113214003BEFEE7034B10B51B68002B00D0984775
S113215010BDC046BC00002070B50F490F4CA14211
S113216004D100F0F7F800F087F8FEE70C4D0023E7
S11321708D42F6D0CA18E818A24205D39042F0D096
S1132180084B0949002204E0006804331060F1E7B9
S113219004C38B42FCD3E4E700000020A00000202D
S11321A04C4F0000A0000020880B002010B500F068
S11321B060F8002801D100F051F810BD014B1860FF
S11321C07047C046BC000020F7B51348012284467E
S11321D01249134C8E68636805689B0E1340019284
S11321E088686268019F920E3A4067463F6893424E
S11321F00ED1BD420CD186420AD35B19FA25486838
S1132200AD00861B07486B437043000DC018FEBD2C
S11322103D0013000600E3E7C000002010E000E0EA
S113222000ED00E05555000070B5041E10D0FFF716
S1132230CBFF050000F01CF8FFF7C6FF054B401B61
S11322409842F7D9FA23013C9B00ED18002CF3D1F6
S113225070BDC046E70300007047000010B5034A94
S113226013680133136000F039F810BDC00000207A
S1132270704700207047000010B501F0DDF802F04F
S113228017FB01F0D1FA0120FFF7CEFF084C200024
S113229000F080FB200000F017FCFFF73BFFFFF786
S11322A03FFF044B002BFAD000E000BFF7E7C04625
S11322B0EC0000200000000010B50400FFF7CCFF84
S11322C0014B1C6010BDC046000000200122024BDF
S11322D052421A607047C04600000020164A10B5EA
S11322E01368591C27D0013B1360002B23D172B60D
S11322F0124B134A0433934208D8BFF34F8F114A49
S1132300114BDA60BFF34F8FC046FDE70F4A01213E
S11323101000147D0C42FCD02021148BFF319B084B
S11323205B0021431183D361094B13800123027D98
S11323301A42FCD0E1E710BD00000020002000009C
S1132340030200000400FA0500ED00E00040004133
S113235002A5FFFF1E2270B54648474943689343D0
S11323601C3A1343436008238C6923438B61434C19
S1132370434B9C829C8A14439C82DC681442FCD0AC
S11323800124404A14701578254203D055786DB263
S1132390002DF8DB01249460547864B2002CFBDB3C
S11323A0394C5460547864B2002CFBDB8224E40181
S11323B05480547864B2002CFBDB02249C840E34D9
S11323C0DD682542FCD0314CDC621024DD682542F6
S11323D0FCD09D8C2E4C2C439C841024DD6825421B
S11323E0FCD002249D8C80262C439C844024DD68F0
S11323F03542FCD0DD682542F9D01024DD68254241
S1132400FCD000249460547864B2002CFBDB214C93
S11324105460547864B2002CFBDB1C6A1E4D2C40C3
S113242080251C621C6AAC431C62032393601B4B13
S1132430536053785BB2002BFBDB0023FF240B7249
S1132440174A4B728B72CB72164B1A60164B174A93
S11324501B6811689A065B01C90E2340520F1202D1
S11324600B431343124A138580234268134343608A
S113247070BDC04600400041000400400C0600004E
S113248000080040000C004001050100B905FF7D73
S1132490040A000000070300FFFCFFFF030601001D
S11324A0006CDC02040000202460800020608000B6
S11324B000400042704710B5040001F095FA200076
S11324C010BD0000F0B5822919D1C3B2294D5A01BB
S11324D0AA189169284C80010C40C0218905214328
S11324E091612649083308187021506128685B01FE
S11324F01A5C8A43110030220A431A54F0BD0029A1
S1132500FCD1C026C1B21B4C4B01E3189A681A4D8A
S1132510B6052A4032439A60194A800112185A605B
S11325200A000727246808325201115DB9430F00DD
S11325300121394311559F6910493D4008182E4324
S11325409E6158617020115D814308001021014390
S1132550115599680B48A21808408021490301438A
S113256099609968890B89039960402311790B4319
S11325701371C3E7A4050020FFFFFF8F180100209B
S1132580D8020020FF3F00F0EFF310830360012323
S1132590436072B670470368002B02D162B6BFF382
S11325A06F8F7047F7B50600FC36B3690400002B43
S11325B018D1B2277F00C55D6846FFF7E5FF019B90
S11325C0EDB2013B02D3E55DEDB2FAE76846019353
S11325D0FFF7E1FF002D01D10020FEBD706E336EC8
S11325E0C01AFAE76846FFF7CFFFD8220025019BFF
S11325F05200013B02D3A55CEDB2FAE768460193B1
S1132600FFF7C9FF002DE7D0D6235B00E058043B59
S1132610E358E5E710B54468FC3043690B48DBB286
S11326205A01A218916808330840802149030143E4
S1132630916091685B01890B890391602268D318CA
S1132640402219790A431A7110BDC046FF3F00F0B9
S1132650F7B50500FC352B7D4268190004000831EC
S1132660106849014118C979C90711D55B01D2180D
S113267093689B049B0C0CD12000FFF7CBFF63688D
S11326801A686B69DBB208335B01D3187F22DA71F5
S1132690F7BDE969002923D16B662300012669335C
S11326A0FF33EE6168465360B227FFF76DFF7F008A
S11326B0B221019BFF31013B5A1C38D0D822E65588
S11326C05200A25C581ED2B26254625C8446002A54
S11326D004D120000193FFF79DFFE9E76346EBE790
S11326E0D621490063500023EB6123001D33FF33DF
S11326F053606846D826FFF747FF01277600B221CA
S1132700019BFF31013B5A1C11D0B222A755520044
S1132710A25C581ED2B26254625C8446002A04D180
S113272020000193FFF776FFE9E76346EBE768468D
S11327300193FFF730FFA2E7F7B5050068462C00C8
S1132740FFF722FF0027FF22019BFC34013B0DD33E
S1132750E0682169884204DBE7682069D71B3F18D9
S1132760F4E72769E1687F1A013FEFE768460193C0
S1132770FFF711FFA3696846002B41D1FFF704FF5F
S1132780B221019B4900013B5A1C0CD06E5C5A1EBD
S1132790F6B2002E05D168460193FFF7FCFE300027
S11327A0FEBD1300F0E7684601930026FFF7F3FE31
S11327B0FF22BE4203D0236E616E8B4260D3636EF0
S11327C0226E9A42EBD1002323660133A36168464B
S11327D0B224FFF7D9FE6400B2220021019BFF322C
S11327E0013B581CD7D02955A85C5F1E002805D092
S11327F0A95428000193FFF70DFFEDE73B00F0E734
S1132800FFF7C2FED821019B4900013B5A1C06D0A8
S11328106E5C5A1EF6B2002EBDD01300F6E7684671
S11328200193FFF7B8FED42200265200BE4205D021
S1132830D6214900AB5869588B4232D3D6235B006A
S1132840EB58A9589942AAD100236846AB50A3611A
S1132850D824FFF799FE6400B2220021019BFF32C5
S1132860013B581C97D02955A85C5F1E002805D051
S1132870A95428000193FFF7CDFEEDE73B00F0E7F4
S1132880591CEB18FF332166597FE3682069013333
S11328901340834203D0E06828180172E3600136D4
S11328A087E7591CA950FF21EB186933FF331B78C4
S11328B09C46E36801330B4021698B4204D0604697
S11328C0E16869180872E3600136AFE710B50400E7
S11328D0FFF732FF2300FC331969DA68914203D011
S11328E01B69E418207A10BD01204042FBE710B5B3
S11328F00400FC34FFF720FFE0682369C01A01D507
S11329000130FF3010BDF0B585B001920091050093
S1132910FFF712FF02A8FFF737FE01200024FF266D
S1132920039A4042013A1DD32B00FC3301998C4297
S1132930F8D2D9681F69C91B01D50131FF310029BB
S1132940F0D01969DF688C460100BC4506D01969CE
S11329501F69691801373740097A1F61009F39558B
S11329600134E3E702A80392FFF715FE200005B047
S1132970F0BD37B56B46DC1D00230D00237001F05C
S1132980DDFE210001F05AFE2B681818286020781B
S11329903EBD0000F8B520233E4A0500D1690F2052
S11329A00B43D36101223C490B7813430B703B4B1F
S11329B019788143197006211C782143197038490C
S11329C00C7822430A701A7802401A70602219782F
S11329D00A431A70334B344A5A805F78FF09FCD19A
S11329E03248FFF7EBFB324E0123300010C83900A8
S11329F02278134380222370520001F09AFFA378B7
S1132A00DB07FCD41F2004362A4B66621B685A0B72
S1132A10990C9B01024001405B0F824200D10522C8
S1132A201F2900D10239072B00D1043B268D224FE8
S1132A3002403E40920132432285228D014082436E
S1132A400E00110031432185228D19031B4B1C48B4
S1132A5013407F220B4323852378C1211340237025
S1132A6004232278890013430C222370238993437F
S1132A70144A238153581B021B0A535080231360AA
S1132A8022787E3B13432370012300212B7001F035
S1132A90C9FDF8BD00040040584400413C440041D5
S1132AA059440041000C0040064000001934000065
S1132AB0A4050020246080003FF8FFFFFF8FFFFF84
S1132AC0380B002000E100E00078002810D001213C
S1132AD0084B1B681A898A431A810822198B0A43F6
S1132AE01A830422198B0A431A830022024B1A60A8
S1132AF07047C046A40500209C05002010B50F4A6D
S1132B0093699B0B9B03936113680222FF331A7230
S1132B109879823A02439A711A7A9207FCD57F24F3
S1132B20074A2140937A0800A343190080230143F4
S1132B309172917A5B420B43937210BDA4050020FD
S1132B400050004110B50C0001F0F8FD210001F027
S1132B50ACFD002804D1034A93699B0B9B0393614A
S1132B6010BDC046A4050020F8B50D00832A19D174
S1132B70CBB2394C5A01A21891693848AD010840CA
S1132B80C021890501439161354920684D1970219F
S1132B90083355615B011A5C8A43110040220A43E1
S1132BA01A54F8BD022A52D12E4A8B009858002894
S1132BB002D003685B699847DA20400000F010FFF8
S1132BC080220400244E284B4660036052000021FA
S1132BD0083001F0AEFE22000023FC32D3605561C0
S1132BE0136113669361D3615366B2225200A354F6
S1132BF04432A3500432A3500432A354B222FF320D
S1132C00A354EAB2500131188B68144F08321F40A4
S1132C10C0239B053B4307278B6033685201D65C76
S1132C20AD00BE43B446032667463E43D654220055
S1132C301D32FF324A6001221B18FF33997A2000AB
S1132C400A439A72FFF7E6FC064B5C51A9E71100B0
S1132C502800FFF737FCA4E7A4050020FFFFFF8F3F
S1132C6018010020F0000020084B000070B505009A
S1132C700124064BA200D258002A06D021002800C5
S1132C800134FFF771FF0A2CF3D170BDC40000209A
S1132C900B4BCAB20B48890159185301C318596127
S1132CA099690832890B89039961036852019A185A
S1132CB00223D3715179823B0B4353717047C04651
S1132CC018010020A4050020084B8A00D05810B534
S1132CD0002803D003689B68984710BDC9B2044B11
S1132CE04901591888688004800CF6E7F000002038
S1132CF0A405002010B50C00FFF7E6FF00280CD057
S1132D00064BE4B21B68083464011C198023627901
S1132D105B42134363710223E37110BDA4050020D9
S1132D20F0B51C002B4B85B01B6807000D00029208
S1132D30002B4BD0284B8A00D058002808D00368B9
S1132D4022005B68029998470400200005B0F0BD9A
S1132D503800FFF7B9FF844204D929003800FFF78F
S1132D60B3FF04000121EBB21C4E03935B010193FA
S1132D70F21893689B0B9B039360019A3368029843
S1132D809B18FF335A7A0A4315495A72AB01C91882
S1132D90220001F0C5FD002CD7D029003800FFF730
S1132DA093FF0028D1D14021039B326808335B0193
S1132DB0D3181879014319710121D9710121019B9B
S1132DC0D318FF339A7A0A439A72BEE70124644205
S1132DD0BBE7C0469C050020F0000020A4050020AD
S1132DE0D802002013B56B46DC1D22000123FFF737
S1132DF097FF012801D1207816BD01204042FBE74E
S1132E0070B5134BCCB2134A6001890159181318D9
S1132E1059609968104D08340D40802149032943B5
S1132E20402599609968890B890399601168630149
S1132E30CB181E7935431D719D796D06FCD564014F
S1132E400919CB79DB07FCD512189068C0B270BDA4
S1132E50D8020020A4050020FF3F00F070B50D004B
S1132E6000211400FFF7CCFFA04200D9200000236A
S1132E700349A34203D05A5CEA540133F9E770BD15
S1132E80D8020020F0B51E003A4B85B01B680F0035
S1132E900192002B35D08023DB019E4231D80025DE
S1132EA0354A8B01D3180293002E2CD0334B1B6868
S1132EB00393FF233B401C0000930834039B6401ED
S1132EC01C19A379DB0921D02D4B2E49186801F078
S1132ED063FC2D4B1721584301F05EFC2B4BE27928
S1132EE0920713D4DA5D002A01D10138F7D2012206
S1132EF0DA55009B214A5B01D3189A69920B92031D
S1132F009A6101256D42280005B0F0BD00221F4BD7
S1132F103400DA553F2E09D9009B40245A01174B3F
S1132F209B188022996912060A439A61220001992A
S1132F30029801F0F5FC009BA1045A010F4B890C87
S1132F409B18029A2D195A619A69361B920B9203A7
S1132F500A439A61009B039A08335B01D318022247
S1132F60DA715979823A0A435A71019B1B19019308
S1132F709AE7C0469C05002018010020A405002003
S1132F800400002040420F00701101000D010020D8
S1132F9070B50D001C000D4EAB01F6181100300089
S1132FA0220001F0BDFCEDB209496D014D196E61BD
S1132FB0AB69084A20001340AB61AB69A2049B0BC8
S1132FC0920C9B031343AB6170BDC04618010020F3
S1132FD0A4050020FF3F00F0F7B5104B01901B78CB
S1132FE00F001500002B0CD10D4B16001C78002C83
S1132FF009D00C4E0C4834880019641901F090FC77
S113300034802800FEBD002EFBD03A193300002185
S11330100198FFF7BDFF2418361AF4E7980400203E
S1133020990500209A05002099040020F8B50E00A7
S113303015000027012A27D9100001F05DFC0400C7
S1133040300001F039FD01304000032320700222DA
S11330503800637095420DD9317800290AD0531C89
S1133060DBB20136A1549D4203D00232E054D2B205
S1133070F0E72A0021000548FFF7AEFF471EB841DC
S1133080C7B2200001F042FC3800F8BDEC0000207B
S1133090F0B50027012687B01E4B009102A91E70CF
S11330A005000297FFF765FC03AC01900922390083
S11330B0200001F03EFC09232370022363709E3339
S11330C0E3715A332372029B6671093363806B4642
S11330D01B7923710F4B1F70009B092B07D11A001A
S11330E021002800FFF778FF012007B0F0BD0A4B4C
S11330F009221E70094E2100280002973780FFF72D
S11331006BFF02A92800FFF734FC034B32881F70C1
S11331100349E6E798040020990500209A05002059
S11331209904002070B5CE7892B005000C00022EF0
S11331300BD18B79C9792E4809021943FFF7A8FFEF
S1133140411E8841C0B212B070BD01F0F7FA2100EF
S113315001F088FA002803D0C117081AC00FF2E75B
S1133160012E0ED1E279A37912021A432149112AC0
S11331703CDCD2B2002A39D02800FFF72DFF012011
S1133180E1E7032EDFD1A378002B28D0022B08D14E
S1133190E279A379120218491A432800FFF746FF7F
S11331A0D1E7012B05D1E279A37912021A4313491D
S11331B0F3E7032BC7D10100412201A801F0B9FBB9
S11331C001F0BCFA01A901F05DFA002805D0E2790A
S11331D0A37912021A4301A9DFE70378FFDEE2793B
S11331E0A37912021A430649032AC2DD0A78C3E707
S11331F0EC0000204A4B0000244B00003E4B000032
S11332003A4B0000CBB204495B01C9188B699B0B94
S11332109B038B617047C046A405002037B50500A9
S113322048780C000B2811D801F0ACFA061D102EBA
S1133230104348644C4F5D60097801AA002907D106
S11332400223117051702800FFF7A2FE01203EBD39
S1133250002313705370284B1B78012B00D113707B
S113326002230021EFE78A780023012A04D101AA6E
S113327013705370214BEFE71F4A1370204A936970
S11332809B0B9B039361E1E78C78012C06D1002111
S11332901A4B01AA1C7011702300D4E70120002CE2
S11332A0D5D1154B164A187093699B0B9B039361F8
S11332B0CDE789782800FFF721FCC7E72800FFF74E
S11332C031FFC4E701230F4ACBE70B780020DB066C
S11332D0BDD12800FFF7CAFCA2780A4B0A481A603D
S11332E001F088F9CAE70123084ABAE78A78074B4C
S11332F01A60C3E70020AAE70C0100201401002093
S1133300A40500209C050020380B0020A005002007
S11333103B4BF7B51E780500002E61D1394C23686C
S11333209A8B12070DD5082231009A833000FFF7DB
S1133330C9F810222368FF33997A0A439A72324BF0
S11333401E6023689A8B520701D504229A83FF33A7
S11333501A7A920603D52022597A0A435A721A7AA3
S1133360D20625D56846294A6946C0CAC0C0A268A3
S1133370920B9203A2604022587902435A7160234F
S11333800A7828001A422CD1FFF748FF00282BD0D6
S1133390802223685242FF3399790A439A71236841
S11333A0FF331A7A520603D54022597A0A435A72D5
S11333B07F2601252368FF331E722F0023680837F8
S11333C07F01DB19DB79002B07D0114BAA00D05801
S11333D000280CD003681B6898470135082DECD1F0
S11333E0F7BDFFF7AFFBD1E720220A4BD6E701F088
S11333F0A5F9290001F069F92368DF19FE71ECE7EA
S113340099050020A40500209C050020D802002076
S1133410F0000020FF50004110B50248FFF778FF8C
S113342010BDC046EC000020014A024B1A607047F0
S113343000500041A4050020FA21314B10B5186852
S1133440890001F0A9F92F4B0138984256D82E492A
S11334502E4A4860C020136A00061B021B0A03435D
S11334601362002407238C600B608021136A090611
S11334701B021B0A0B431362FC22254B196A0A43E5
S11334801A62FC22196A92010A431A62A022196A7A
S1133490D2020A431A6220000021013400F0EEF83F
S11334A00F2CF8D11B4B1C005A7852B2002AFBDBBC
S11334B0194A5A80194B1A00597EC9090129FBD0AF
S11334C0E421C90099803F21D970537EDB09012B87
S11334D0FBD0C02300205B011361907000F02EF834
S11334E063785BB2002BFBDB0D4B0E4A6380D37910
S11334F0DB09012BFBD04123537010BDFEE7C0460E
S113350004000020FFFFFF0010E000E000ED00E0F9
S113351000040040000C00401E4000000040004237
S11335202140000000480042914202D002D98A1A88
S1133530D0407047521A9040FBE70000164A00B58D
S11335401300517EC9090129FBD00138042816D87B
S11335501969124A0A400F211A615A788A4301F004
S113356011F90308060B0300110001220A435A70E3
S113357000BD11000322F9E711000222F6E7F0234F
S113358011691B050B430F21136153788B431900F9
S113359002230B435370EBE700400042FFFFFFF0B0
S11335A010B504000E2800D80F340121200000F0CB
S11335B0DDF81823102163432B4CE41861560029CD
S11335C042D0142940D029480300427ED209012A5E
S11335D0FBD01F2402692140A2430A4302615A7EA0
S11335E0D209012AFBD0022219780A431A705A7EA2
S11335F0D209012AFBD00222197B0A431A731A7ECC
S1133600D207FCD501221A765A7ED209012AFBD0B0
S11336100222197B0A431A731A7ED207FCD5588BEF
S113362080B25A7ED209012AFBD002211A788A4339
S11336301A705A7ED209012AFBD00D4B1A680D4B21
S11336401968FFF771FF10BD0B4B1800DA79D20926
S1133650012AFBD002241A78A2431A70C379DB0929
S1133660012BFBD0AFE7C0465C4B0000004000429A
S11336700C0000200800002000480042182330B548
S11336801D00040045430820204A551928560130DE
S113369014D0032912D808006343D156D31801F07B
S11336A071F802280E1B5868CB010221184A9B1896
S11336B01A1840321170012282405A6030BD586895
S11336C0CB010621124A9B181A18403211700122AC
S11336D082405A609A61F1E75868CB0106210C4A8E
S11336E09B181A1840321170012282405A605A61A4
S11336F0E4E75868CB010221054A9B181A184032A6
S11337001170012282409A60D8E7C0465C4B0000E9
S1133710004400411823F0B508245843114A1318F3
S11337201C5701341BD0012635005F688356BD4009
S11337300D4ADB019A18906828420BD10C00601ED8
S11337408441D2194032107834400336A400B04387
S113375020431070044A9B18002901D15D61F0BD1B
S11337609D61FCE75C4B000000440041F8B5030098
S1133770182058432A4A1018007A40B20400013035
S113378013D0481C00240C280FD800F0FBFF451C64
S11337901C1C1C1C1C1C1C0707070700092906D13C
S11337A000211800FFF76AFF00242000F8BD0A2951
S11337B001D10839F5E700240B29F6D10A3918009C
S11337C0FFF75CFFF1E718204343D0184668012552
S11337D03400D2561348D20112187308D318303368
S11337E02C401878002C0BD00F24090120400143F1
S11337F0C9B292191970403213781D431570D3E77A
S11338000F27B84301439219C9B21970130040330A
S11338101A7815431D70C8E701246442C5E7C04601
S11338205C4B00000044004170B501212020FFF7EB
S113383025FF00212020FFF76DFF0A20FEF7F4FC8E
S113384000212020FFF71AFF6420FEF7EDFC202062
S1133850FFF7A6FE962305009B002F4C984222D921
S11338602E49200000F066FA200000F050F90321F0
S11338700B20FFF77BFF03210C20FFF777FF0022CB
S11338806B21200000F07CF90121200000F0BAF93E
S11338901B21200000F0B6F92000032100F054F9A8
S11338A0200000F047F91D49200000F043FA2000F1
S11338B000F02DF903210B20FFF758FF03210C2002
S11338C0FFF754FF00226B21200000F059F9072173
S11338D0200000F097F996232B219B009D4200D9EC
S11338E02039200000F08EF90321200000F02CF98B
S11338F0200000F01FF901211E20FFF7BFFE012167
S11339001E20FFF707FF01211F20FFF7B7FE01214B
S11339101F20FFF7FFFE70BD280B0020A0860100CA
S113392010B5024800F0B5FB10BDC046A806002043
S113393010B5024800F0ADFB10BDC046E4080020FD
S11339407FB51949194800F053F81949194800F08E
S11339504FF81949194800F04BF81949194800F073
S113396047F8194C1949200000F042F8184E19493B
S1133970300000F03DF80125032331000195009348
S11339800D220B33144800F019FB1D230393013B54
S113399002931A3B0193009518331B2221000F4810
S11339A000F0C8FA7FBDC04600080042200B00208A
S11339B0000C0042240B002000100042280B0020C1
S11339C0001400422C0B0020300B00200018004291
S11339D0340B0020001C0042A8060020E40800204C
S11339E010B500F089FF10BD10B500F08FFF10BDB9
S11339F001607047F0B505AC25780468981E471E31
S1133A00B841266892070006324302430720226029
S1133A100140AD01626829430020022B00D0580305
S1133A20114301436160F0BD10B5C0240368A403D1
S1133A301868120522400243C02009048002014094
S1133A40114319605A681043586010BD012203687D
S1133A5019680A431A601A68D207FCD4DA69D207D3
S1133A60F9D470470222036819680A431A60DA69B4
S1133A709207FCD4704703681A7ED20702D41A7ED8
S1133A809207FCD57047002203685A837047036885
S1133A90187E4007C00F70470368187EC00970473E
S1133AA0802302685B42117E0B43137670470368E0
S1133AB0588B8007C00F704702230268518B0B4359
S1133AC0538370470368187EC007C00F70470368AC
S1133AD0188DC0B2704703681A7ED207FCD589B22C
S1133AE0012019857047012203689A7570470122E5
S1133AF003681A7570470122036819680A431A603B
S1133B001A68D207FCD4DA69D207F9D470470222C2
S1133B10036819680A431A60DA699207FCD43021F1
S1133B205A8B8A43110010220A435A83DA695207D6
S1133B30FCD47047022103681A688A431A60DA6960
S1133B409207FCD470470000036810B5186803227C
S1133B50C006400F094C052809D1586811400904D2
S1133B60204001435960DA695207FCD410BD5868FB
S1133B7011400904204001435960F7E7FFFFFCFFAF
S1133B8070B503680400588B8006800F02280ED09D
S1133B905D8B0020AD06AD0F032D32D0588B80070E
S1133BA005D55D8B0020AD06AD0F012D29D1586AD6
S1133BB049001143C00AC9B2C00208435862002A2E
S1133BC013D11A7ED207FCD55B8B9B069B0F022B6D
S1133BD004D0490800222000FFF7D2FF2368588B45
S1133BE04007C30F012058400BE0187E8007C00F28
S1133BF0F4D11A7ED207F8D5C022596892020A433A
S1133C005A6070BD03681A0028321170187EC0070C
S1133C10C00F03D15A8BD207F8D57047588B400791
S1133C20C30F01205840F8E70368214A30B5934296
S1133C3011D0204A93422FD01F4A93422FD01F4ABB
S1133C4093422FD01E4A93422FD01E4A934222D130
S1133C500E23192201E0092314220121032599408E
S1133C601948C024016099082B40AB40FC359D40A5
S1133C7089000918A4000859A843C0259D402B00B9
S1133C8003430B518023DB011A43104B5A805A78AB
S1133C9052B2002AFBDB30BD0A231522DDE70B23D9
S1133CA01622DAE70C231722D7E70D231822D4E7CC
S1133CB000080042000C00420010004200140042C0
S1133CC000180042001C004200E100E0000C00402B
S1133CD0F8B5040016000F001D00FFF7A5FF200033
S1133CE0FFF7B4FE1C22BB00134072072468120CB9
S1133CF0134323608423A375012F18D11021012EAF
S1133D0000D008390A4B69431868C00000F044FD2C
S1133D100722A3890240DB045203DB0C1343A38173
S1133D200304A089DB0C400B40031843A081F8BDB9
S1133D300400002070B505000C00FFF775FF280093
S1133D40FFF7D9FE14232D6861002B600C4B1E680D
S1133D50300000F021FD0B490400300000F01CFD90
S1133D607D23FA215843C90000F016FDFF23241ACD
S1133D70E868053C1C4098430443EC6070BDC046B1
S1133D800400002040420F000120704710B5036872
S1133D90014A1B6A984710BD130400000300FC335A
S1133DA0D9699A69914203D0DB69C018007D7047D4
S1133DB001204042FBE710B504000069FFF746FE0E
S1133DC022000023FC329361D36186229200A4185E
S1133DD06360A36010BDF02001403039484248417F
S1133DE07047F0231B011940802306209B00994251
S1133DF00AD00133FF330130994205D080230238C1
S1133E005B00994200D0002070470F200140002041
S1133E10012903D00239481E8141481C7047000023
S1133E208923F0B5182685B002919B000400C05C7C
S1133E30330008214343324D1700EB185956FFF75E
S1133E4095FC304B0821E05C33004343EB18595692
S1133E50FFF78CFC2C4BE25C0393022A09D111334B
S1133E60E05CFF2805D008214643AE197156FFF7E0
S1133E707DFC8A26B600A05DFF2819D00121FFF73A
S1133E80FDFB1822A35D21495A43AB56AD18DB0153
S1133E9058188B21890060501D4901225B188C2120
S1133EA08900635069688A408D21890062501A60D4
S1133EB00122029B11002069FFF70AFF390020004C
S1133EC0FFF78FFF390005002000FFF79EFF390040
S1133ED006002000FFF77FFF3300009029002069CF
S1133EE00122FFF787FD0B4B2069E25C039BE15C39
S1133EF0FFF79AFD2069FFF7B5FD05B0F0BDC04698
S1133F005C4B000025020000270200001844004119
S1133F101444004126020000802210B5040052001F
S1133F20002100F006FD23000022FC335A6020002B
S1133F309A6010BDF0B585B01D000AAB1B78040073
S1133F4000930BAB1B78160001930CAB1B780F008E
S1133F5002930DAB1B78039300234360FA239B0069
S1133F608360124B083303601430FFF7D5FF200041
S1133F701D30FF30FFF7D0FF89236A469B0027617D
S1133F80E6540B4B1278E5540A4B2000E2546A467F
S1133F90094B1279E2546A46127A0133E2546A46B2
S1133FA0127B1033E25405B0F0BDC046BC4E000095
S1133FB0250200002602000027020000F7B51D00BC
S1133FC008AB1B780400009309AB1B78160001931F
S1133FD000234360FA239B008360114B0F000833D6
S1133FE003601430FFF798FF20001D30FF30FFF707
S1133FF093FF89236A469B002761E654094B127894
S1134000E554094B2000E2546A46084B1279E25405
S11340108A22293BFF3B9200A3541032A354FEBDD5
S1134020BC4E00002502000026020000270200000A
S11340300300FC3358689B68C01A01D50130FF3077
S1134040704710B5040020001D30FF30FFF7F0FF6B
S11340500028F8D12069FFF70EFD10BD10B514300B
S1134060FFF7E6FF10BD0300FC3359689A689142DC
S113407004DB5A689868801AFF30704798685B6858
S1134080C01A0138F9E710B51D30FF30FFF7EBFF18
S113409010BD10B504000069FFF709FD002805D024
S11340A02069FFF714FD2069FFF706FD2069FFF77B
S11340B0EEFC002820D02069FFF709FD2200FC3225
S11340C09369D1690133DBB28B4203D091696118E2
S11340D0087593618A239B00E35CFF2B0CD02000BE
S11340E01430FFF7C0FF092806DC8B238D229B00C8
S11340F09200E358A2581A602069FFF7E3FC0028F5
S11341001AD020001D30FF30FFF792FF002822D084
S113411086239B00E31899685A68914218D08E212F
S11341209A684900A218515C9A680132D2B29A6026
S1134130C9B22069FFF7CFFC2069FFF7ADFC002866
S113414005D02069FFF7ACFC2069FFF79CFC10BD8B
S113415001214942ECE72069FFF7C9FCECE70000C4
S113416070B5040000690D00FFF7ACFC002824D1F1
S1134170FF2686239B00E3185A689968013232406F
S11341808A422FD1EFF31083DB070DD41E4B5B68FB
S1134190DB05DB0DEDD0103B5BB2002B19DB9B087C
S11341A0C0331A4A9B009B582069FFF78BFC0028F8
S11341B0DFD02000FFF76DFFDBE720001D30FF306C
S11341C0FFF736FF0028D3D129002069FFF783FCCD
S11341D017E00F221340083B9B080D4A9B009B18D5
S11341E01B68E1E75A68013216409A68964205D086
S11341F08E215A684900A21855545E602069FFF761
S113420072FC012070BDC04600ED00E000E100E05A
S11342101CED00E00300FC33D9699A6970B5040011
S113422091421AD0DA698218157DDA690132D2B264
S1134230DA618A239B00E35CFF2B0CD0200014304E
S1134240FFF711FF0A2806DD8C238D229B009200C4
S1134250E358A2581A60280070BD01256D42E8E7B2
S11342600020704708B4024B9C46103808BC6047D5
S11342706142000030B50F25CB1D013902002A40F0
S1134280140000093034092A01DD373214001C708F
S1134290013B8B42F2D130BD10B50C000B4B1868BA
S11342A0FFF7E8FF21000A4B08311868FFF7E2FF27
S11342B02100084B10311868FFF7DCFF2100064B82
S11342C018311868FFF7D6FF202010BD0CA080001D
S11342D040A0800044A0800048A0800008B4024BA5
S11342E09C46103808BC60479942000070470000A3
S11342F008B4024B9C46103808BC6047ED420000ED
S11343003F20704713B56B460268D9710733546870
S113431019000122A04716BDF0B50B7895B003AC87
S1134320023301900B7042220021200000F001FBB7
S11343300922042522720422A5756272062505222B
S1134340242002AE657625779519A074E075E07691
S1134350E877300001210630C17730000730C1779B
S113436004A8C17709202173617580190631C177CA
S11343700A208019C27703208446654605A8C577BC
S11343802E201027801907702F2009250823801953
S1134390057004252370033363700EA8093BE37092
S11343A0237163716373A37362742376A276E277D5
S11343B02775278505703320350080190A26037078
S11343C00FA8067010A801703920401902703B2014
S11343D035367619317012A90A7080213D324019A0
S11343E05219037013704020002249420E004133D9
S11343F05B1918705A70019B20871B7D019AA3706A
S1134400A37263770133DBB2A377527D3538164349
S11344104019C6773120401903703A23501C5B19A8
S11344201870412302320A435B191A702100422298
S11344300248FEF7D1FD15B0F0BDC046EC000020E7
S113444008B4024B9C46103808BC6047194300006E
S113445070B50A79037D0C0000259A420BD10B78C4
S11344604E78A12B09D1212E05D107221F492048BE
S1134470FEF7B2FD0135280070BD212BFBD1202EA3
S113448019D1072219491A48FEF7E8FC174B1A7884
S11344905978090211439A7812041143DA78120602
S11344A00A439621C9008A4202D1DB79DB0708D589
S11344B0FDF70CFF08E0222E0AD18A780B4BDA7143
S11344C0E4E7FA20FDF7F8FE00210948FEF79AFE1A
S11344D00125232ECFD1E378A2781B021343054A8A
S11344E0002103481360FEF78DFEC4E7140000208A
S11344F0EC0000201000002008B4024B9C46103849
S113450008BC60475144000010B5417D006A013188
S1134510FEF7DAFB034B1B6801335A1E934118184C
S113452010BDC0461C00002010B5417D006A023158
S1134530FEF7E0FB10BD10B5417D006A0231FEF7C5
S1134540A7FB10BD70B50D00417D040013000231BE
S11345502A00006AFEF796FC002801D1012363605B
S113456070BD000010B5054C23685A1C04D10368C3
S11345705B69984703002060180010BD1C000020F0
S1134580074A0300106810B5411C03D001235B42A5
S1134590136010BD597D186A0131FEF723FCF8E75A
S11345A01C000020FA239B0070B5040083600323E1
S11345B083752300002228334260A3610C4B022040
S11345C01D00443323610835631DE26125602162C7
S11345D0E075DA778323A362013B2363E06200F092
S11345E0ADF82100103100F07DF8200070BDC04608
S11345F0F04E000010B5437D094A022059010133F1
S11346001268DBB25B015118D3180122FF318C7A96
S1134610FF3320438872997A0A439A7210BDC046C8
S1134620A40500207047000010B502490248FFF7B6
S1134630B9FF10BDEC000020380B002070B50E004F
S113464000254468002C0BD0236831005B682000EF
S11346509847002802DB2D18E468F3E701256D4232
S1134660280070BD70B50D004468002C08D0236884
S113467029009B6820009847002802D1E468F4E7E9
S1134680200070BD70B50D0000264468002C09D0D0
S11346902368290020001B69984736182D18F6B2A4
S11346A0E468F3E730002C7070BD70B50D00446809
S11346B0002C08D0236829001B6820009847002894
S11346C002D1E468F4E7200070BD70B50D004468C1
S11346D0002C06D023682000DB6829009847E46892
S11346E0F6E770BDF0B58C79457803002A190020EF
S11346F0072A1FDC5A68824216D159601A78C87991
S11347000A7112184D711A7000220B4D944210DD7B
S11347108F6858789600F759013286000130775136
S1134720D2B25870F2E70200D0680028FBD1D16001
S1134730E4E70120F0BDC046C40000200122054981
S113474005480B68134003D10370427043600A604C
S11347507047C0466C0B0020700B0020F7B50600B4
S11347600D000C008B180193019B671B9C4207D022
S1134770336821781B683000984701340028F3D14E
S11347803800FEBD02B4714649084900095C49007D
S11347908E4402BC7047C046002243088B4274D347
S11347A003098B425FD3030A8B4244D3030B8B422E
S11347B028D3030C8B420DD3FF22090212BA030C37
S11347C08B4202D31212090265D0030B8B4219D318
S11347D000E0090AC30B8B4201D3CB03C01A524138
S11347E0830B8B4201D38B03C01A5241430B8B4280
S11347F001D34B03C01A5241030B8B4201D30B0369
S1134800C01A5241C30A8B4201D3CB02C01A52418F
S1134810830A8B4201D38B02C01A5241430A8B4252
S113482001D34B02C01A5241030A8B4201D30B023B
S1134830C01A5241CDD2C3098B4201D3CB01C01A55
S1134840524183098B4201D38B01C01A524143095F
S11348508B4201D34B01C01A524103098B4201D34D
S11348600B01C01A5241C3088B4201D3CB00C01ABA
S1134870524183088B4201D38B00C01A5241430832
S11348808B4201D34B00C01A5241411A00D2014657
S1134890524110467047FFE701B5002000F006F8CA
S11348A002BDC0460029F7D076E770477047C0467E
S11348B070B500260C4D0D4C641BA410A64209D102
S11348C0002600F011F90A4D0A4C641BA410A642FC
S11348D005D170BDB300EB5898470136EEE7B3003D
S11348E0EB5898470136F2E784000020840000204A
S11348F0840000209400002010B5034B01001868C8
S113490000F06AF810BDC0462000002010B5034B2B
S11349100100186800F016F810BDC0462000002001
S1134920002310B59A4200D110BDCC5CC4540133AD
S1134930F8E703008218934200D1704719700133DD
S1134940F9E7000070B50500002910D00C1F23689A
S1134950002B00DAE418280000F0B5F81D4A1368AB
S1134960002B05D163601460280000F0ADF870BD21
S1134970A34209D9216860188342F3D118685B689F
S113498041182160EEE713005A68002A01D0A242C0
S1134990F9D919685818A0420BD120680918581879
S11349A019608242E0D110685268411819605A6057
S11349B0DAE7A04202D90C232B60D5E721686018FE
S11349C0824203D1106852684118216062605C60C1
S11349D0CAE7C046780B0020032370B5CD1C9D4365
S11349E0083506000C2D1ED20C25A9421DD8300016
S11349F000F069F8254A14682100002919D1244CD3
S1134A002368002B03D1300000F044F82060290013
S1134A10300000F03FF8431C2CD10C2330003360ED
S1134A2000F052F803E0002DDFDA0C23336000209D
S1134A3070BD0B685B1B1AD40B2B03D90B60CC180D
S1134A40256003E08C420ED163681360300000F0EF
S1134A503BF8200007220B30231D9043C31AE7D0F4
S1134A605A42E250E4E74B6863600C00EEE70C0046
S1134A704968C2E70323C41C9C43A042E0D0211A26
S1134A80300000F007F8431CDAD1C6E7780B0020A9
S1134A907C0B0020002370B5064C05000800236041
S1134AA000F014F8431C03D12368002B00D02B60C2
S1134AB070BDC046840B00200023C25C0133002A71
S1134AC0FBD1581E7047704770470000044A1368B2
S1134AD0002B03D01818106018007047014BF9E739
S1134AE0800B0020880B0020F8B5C046F8BC08BC39
S1134AF09E467047F8B5C046F8BC08BC9E46704751
S1134B0000000000000000005126000007290000FA
S1134B10EF280000CD280000B5240000B7240000D1
S1134B20A525000041726475696E6F204D4B5220BB
S1134B305769466920313031300004030904417259
S1134B406475696E6F204C4C430012010002EF0241
S1134B5001404123548000010102030100000000D0
S1134B6016000000080000001C000000FF00000404
S1134B700004060000000000170000000800000008
S1134B801C000000FF0001040104070000000000F5
S1134B900A000000080000001C00000012000001D0
S1134BA00001FF00000000000B00000008000000EE
S1134BB01C000000130001010101FF0001000000BE
S1134BC00A000000080000001C000000FF000005AF
S1134BD000050A00010000000B00000008000000AE
S1134BE01C000000FF00010501050B00000000008F
S1134BF014000000080000002C000000FF00020068
S1134C00020004000000000015000000080000007D
S1134C102C000000FF00030003000500000000005A
S1134C2010000000020000001C000000FF00000251
S1134C30000200000000000011000000020000005B
S1134C4004000000FF00FFFFFFFF01000000000060
S1134C5013000000020000001C000000FF0001031C
S1134C600103FF0000000000080000000300000032
S1134C70040000001000FFFFFFFF10000000000010
S1134C800900000003000000040000001100FFFF01
S1134C90FFFFFF00010000001700000003000000F8
S1134CA004000000FF00FFFFFFFFFF000100000001
S1134CB0160000000300000004000000FF00FFFFD6
S1134CC0FFFFFF00000000000200000001000000E0
S1134CD0060000000000FFFFFFFFFF0001000000CE
S1134CE00200000001000000040000000A00FFFFB1
S1134CF0FFFF0200010000000300000001000000AB
S1134D00040000000B00FFFFFFFF03000000000091
S1134D1004000000010000001C000000040000006A
S1134D200000FF000000000005000000010000007A
S1134D301C000000050001000100FF00000000004D
S1134D400600000001000000040000000600FFFF50
S1134D50FFFFFF000000000007000000010000004A
S1134D60040000000700FFFFFFFFFF000000000039
S1134D70180000000600000000000000FF00FFFF14
S1134D80FFFFFF0000000000190000000600000003
S1134D9000000000FF00FFFFFFFFFF000000000015
S1134DA0120000000800000004000000FF00FFFFE4
S1134DB0FFFFFF00000000000300000008000000E7
S1134DC004000000FF00FFFFFFFFFF0000000000E1
S1134DD00C0000000300000000000000FF00FFFFC3
S1134DE0FFFFFF00000000000D00000003000000B2
S1134DF000000000FF00FFFFFFFFFF0000000000B5
S1134E000E0000000800000000000000FF00FFFF8B
S1134E10FFFFFF00000000000F000000030000007F
S1134E2000000000FF00FFFFFFFFFF000000000084
S1134E301B0000000800000000000000FF00FFFF4E
S1134E40FFFF0F0001000000080000000800000040
S1134E50060000000200FFFFFFFFFF00010000004A
S1134E600900000001000000180000000300010414
S1134E700104090000000000000000000800000018
S1134E8000000000FF00FFFFFFFFFF000000000024
S1134E90010000000800000000000000FF00FFFF08
S1134EA0FFFFFF00000000001C00000008000000DD
S1134EB004000000FF00FFFFFFFFFF0000000000F0
S1134EC000000000614100005D47000087400000D1
S1134ED0434000005D400000154200009D3D00007D
S1134EE08D3D0000213E0000B73D0000893D0000DB
S1134EF000000000000000000543000045450000DC
S1134F0001430000294500000945000081450000D7
S1134F106545000037450000194300006142000068
S1134F205144000099420000ED420000F0FFFFFFF1
S1134F3000000000F9440000414400006542000004
S10F4F40F1420000DD420000000000000F
S1134F4CFFFFFFFF40420F000A0000000A000000B0
S1134F5CFFFFFFFF00C2010000000800FFFFFFFF7E
S1134F6C24000020000000000000000000000000ED
S1134F7C0000000000000000000000000000000021
S1134F8C0000000000000000000000000000000011
S1134F9C0000000000000000000000000000000001
S1134FAC00000000000000000000000000000000F1
S1134FBC00000000000000000000000000000000E1
S1134FCC00000000DD2000002934000041390000FD
S1134FDC29460000B520000000000000000000007D
S903215982
